:10000000F07F0020FD040000D9060000DB060000A0
:1000100000000000000000000000000000000000E0
:10002000000000000000000000000000D7060000F3
:100030000000000000000000D7060000D706000006
:10004000D7060000D7060000D7060000D70600003C
:10005000D7060000D7060000D7060000D70600002C
:10006000D7060000D7060000D7060000D70600001C
:10007000D7060000D7060000D7060000D70600000C
:10008000D7060000D7060000D7060000D7060000FC
:1000900000000000D7060000D7060000D7060000C9
:1000A000D7060000D7060000D7060000D7060000DC
:1000B000D7060000D7060000D7060000D7060000CC
:1000C000D7060000D7060000D70600000000000099
:1000D000000000000000000000000000D706000043
:1000E000D7060000D7060000D70600000000000079
:1000F000000000000000000000000000D706000023
:10010000D7060000D7060000D7060000D70600007B
:10011000D7060000D7060000D7060000D70600006B
:10012000D7060000D7060000D7060000D70600005B
:10013000D7060000D7060000D7060000D70600004B
:10014000D7060000D7060000D7060000D70600003B
:10015000D7060000D7060000D7060000F07F002079
:10016000FD040000D9060000DB06000000000000CE
:10017000000000000000000000000000000000007F
:100180000000000000000000D70600000000000092
:1001900000000000D7060000D7060000D7060000C8
:1001A000D7060000D7060000D7060000D7060000DB
:1001B000D7060000D7060000D7060000D7060000CB
:1001C000D7060000D7060000D7060000D7060000BB
:1001D000D7060000D7060000D7060000D7060000AB
:1001E000D7060000D7060000D7060000DF06000093
:1001F000D7060000D7060000D7060000D70600008B
:10020000D7060000D7060000D7060000D70600007A
:10021000D7060000D7060000D7060000D70600006A
:10022000D7060000D7060000DF060000DF0600004A
:10023000DF060000DF060000D7060000D70600003A
:10024000D7060000D7060000DF060000DF0600002A
:10025000DF060000DF060000D7060000D70600001A
:10026000D7060000D7060000D7060000D70600001A
:10027000D7060000D7060000D7060000D70600000A
:10028000D7060000D7060000D7060000D7060000FA
:10029000D7060000D7060000D7060000D7060000EA
:1002A000D7060000D7060000D7060000D7060000DA
:1002B000D7060000D7060000F8B5C046F8BC08BC59
:1002C0009E467047B1050000F8B5C046F8BC08BCB2
:1002D0009E4670478D0500002D4B022119760022A5
:1002E0002C4802742C4801621A861900802252049C
:1002F0000B691342FCD0294B1B685B009B0E9B02D1
:1003000040F200221343224A536311008022520418
:100310000B691342FCD040F262421D4B1A86190051
:10032000802252040B691342FCD01D4A1D4B5A62B5
:10033000190008224B681A42FCD11B4A194B1A6259
:10034000190004224B681A42FCD140219C23154A13
:10035000D15010009C21402243581A42FCD0402129
:10036000C823104AD1501000C821402243581A42D5
:10037000FCD04021D0230B4AD1501000D021402284
:1003800043581A42FCD0094A094BDA617047C0460B
:100390000010004000140040001800402060800061
:1003A00003010100001C004007010100BDFF1F0008
:1003B000000800401E4A1F4B70B50021934203D233
:1003C000197001339342FBD1002503261A480368B4
:1003D0004168B3B959B383680C30BBB10023002224
:1003E000845C9C5401328A42FAD333000B405A1E7B
:1003F0009341890859188900401803684168002B07
:10040000E8D082680C303AB90029E0D059181D7044
:1004100001338B42FBD1DAE70029E0D133000B40F6
:100420005A1E93418908591889004018E5E770BDA4
:100430000000002000000020940600001A4B8822D3
:10044000D2031A61022155229954012258215A548B
:1004500059215A5466203C215854C8218904D96630
:10046000D4215A54D5215A54DE215A54DF215A54EA
:100470002221BA2299543321BF2299540B49EC22EC
:1004800099508021090314329950C022520340F23E
:1004900010115A500621EE301954083019546731A2
:1004A000FF315A507047C04600320040000030C053
:1004B000BFF35F8F62B6104B40F2802298588021C4
:1004C0004903014399509A5840F2842299580820D0
:1004D00001439950995899581020014399509958BF
:1004E0009958202001439950995899584020014328
:1004F00099509B587047C04600E100E010B50A4B88
:1005000098470A4B9847FFF755FF094A7F21094B47
:100510008B439360084B9847084B9847084B984784
:1005200000F054F8FEE7C046DD060000DD060000DE
:1005300000ED00E00000000045050000DD060000C1
:10054000DD06000070B500260C4D0D4C641BA41098
:10055000A64209D10026FFF7AFFE0A4D0A4C641BE4
:10056000A410A64205D170BDB300EB5898470136E0
:10057000EEE7B300EB5898470136F2E7C4020000FB
:10058000C4020000C4020000C802000010B5054CFF
:10059000237833B9044B13B1044800E000BF0123B2
:1005A000237010BD000000200000000000000000CB
:1005B000034B10B51BB10349034800E000BF10BD59
:1005C00000000000040000200000000010B582B010
:1005D0008023DB021C68002000F046F8631C0DD06D
:1005E00084F38888064B1B680193019C64086400AF
:1005F000200021002200230000F004F8FEE7C0469E
:1006000004000400E0B545464E465746E0B45D465A
:1006100020B4254626462746A046A146A246A34624
:10062000A44684F30088A44720BCAB46E0BCBA468D
:10063000B146A846E0BD70470A4B00221A819A795C
:1006400001210A439A719B7803221340022B07D0A1
:100650000222044B9A70190001228B791342FCD0BC
:100660007047C0460004004010B5FFF7E5FF0422C4
:10067000074B5A60FFF7E2FEFFF72EFE00F01AF874
:1006800000F028F8FFF7D7FFFFF712FF10BDC046B4
:1006900000500041000000201C000000000000008D
:1006A000000000000000000022222222222222223A
:1006B00022222222024B04225A6001221A7270471F
:1006C00000500041401801000200030084468EF3F0
:1006D000008874477047FEE7FEE7FEE77047FEE7D5
:020000040003F7
:08FE00007FE97FE9C0F75EBC59
:020000040004F6
:10000000F0FF0020616304002F5A04004B6E0400CF
:1000100000000000000000000000000000000000E0
:100020000000000000000000000000007F580400F5
:1000300000000000000000007F5804007F5804000A
:1000400000000000000000000000000000000000B0
:1000500000000000000000000000000000000000A0
:100060000000000000000000000000000000000090
:100070000000000000000000000000000000000080
:100080000000000000000000000000000000000070
:1000900039770400000000000000000000000000AC
:1000A0000000000000000000000000000000000050
:1000B0000000000000000000000000000000000040
:1000C000000000000000000000000000C524040043
:1000D000C5240400C5240400C52404000000000059
:1000E0000000000000000000000000007F58040035
:1000F0007F5804007F5804007F580400000000006F
:1001000000000000000000000000000000000000EF
:1001100000000000000000000000000000000000DF
:1001200000000000000000000000000000000000CF
:1001300000000000000000000000000000000000BF
:1001400000000000000000000000000000000000AF
:10015000000000000000000000000000F8B5C046EC
:10016000F8BC08BC9E4670477D660400F8B5C046E2
:10017000F8BC08BC9E46704759660400F0B5CE46F0
:10018000474680B591B004000E00002800D15AE324
:10019000E225002900D157E340220021684607F0FC
:1001A00013FB3188200007F0E1F8002800D13DE37F
:1001B0003A21200007F073F9070040B1051B013513
:1001C00040F6C4139D4201DD40F6C41535B96B46B7
:1001D00003221021012006F089FE32E3C34B98462A
:1001E0002A002100180006F0E3FE00234246535582
:1001F0004FF6FF702840414606F02AFB43461B7825
:10020000613BDAB2132A53D89300B94AD3589F46B8
:100210000022B84B1A702821B44807F040F90500B5
:1002200088B12921B14807F03AF9002844D00135B6
:10023000431B9BB2082BCAD110220021280006F0D4
:1002400037FF04F089FC01373A21380007F027F91D
:100250000500A0B3EB1B01339846002BB7D0A34B8E
:10026000994642463900180006F0A2FE00234A468D
:10027000414653542821484607F011F9070030B38E
:100280009A49781A06F0E4FA9A4B1B78002B00D0B2
:10029000A0E0964B1B78613BDAB2152A00D995E0B5
:1002A0009300954AD3589F463022924B1A70B2E77A
:1002B000FF22904B1A708AE728000830B7E70A211E
:1002C000380007F0ECF80500002880D0C2E73A219A
:1002D000864807F0E4F80700002800D177E7CFE769
:1002E0000122844B1A7001372921380007F0D7F812
:1002F0008046002800D16AE740F6C41200217F48FA
:1003000007F062FA4346DA1B7D4B1A804FF6FF7303
:100310001A403900794806F04BFE764B1B78F02BDB
:1003200000D19FE0764D2888744905F045FE28806D
:10033000704B1B78312B00D1C7E1DAB2312A00D9DA
:1003400010E1042B00D16FE1042A00D8DEE0062B77
:1003500000D192E1DAB2062A00D278E1072B00D16F
:100360009EE1082B00D05FE2664B19680B7F4A7F45
:1003700012021A438B7F1B041A43CB7F1B061343C5
:10038000002B00D145E25D4A1078421E9041C0B278
:100390009847D4E00222574B1A70A4E7534B5B787E
:1003A000692B03D10522534B1A709CE70322514B52
:1003B0001A7098E704224F4B1A7094E706224D4BAF
:1003C0001A7090E707224B4B1A708CE7FF22494BBB
:1003D0001A70FCE6302B05D0F02B9ED0FF2B00D1FD
:1003E000F5E680E7414B1B78693BDAB20E2A35D837
:1003F0009300454AD3589F46F0223E4B1A708CE733
:1004000031223C4B1A706EE7384B5B78652B03D179
:100410003422384B1A7066E73222364B1A7062E784
:10042000324B5B78722B05D0772B07D13722314BBB
:100430001A7058E738222F4B1A7054E7FF222D4BC1
:100440001A70C4E633222B4B1A704CE73522294B25
:100450001A7048E73622274B1A7044E7FF22254BD3
:100460001A70B4E601350A21280007F018F80028B0
:1004700000D1ACE6471B002F00D1A8E61B4B9846E5
:100480003A002900180006F093FD00234246D35598
:100490002821404607F003F80500002800D196E621
:1004A000124FC01B390006F0D3F93B78732B18D1DB
:1004B000F122104B1A7001352921280006F0EFFFB8
:1004C000002800D183E6401BC0B2022800D07EE69F
:1004D00010220021280006F0EBFDC0B204F03CFB26
:1004E00020E7FF22034B1A701CE7C0465882002009
:1004F00024400400D0A400207440040094960020FE
:10050000C8A40020A8A40020CC400400022B63D083
:10051000022A74D8012B00D086E1CE4B19680B78E3
:100520004A7812021A438B781B041A43CB781B06B5
:100530001343002B00D16CE1C749C84898470428F1
:1005400000D166E1C64B1B78013B022B21D832005B
:10055000210004F0CBF80500002D00D074E106F076
:100560005BFF71E1352B00D1DEE0DAB2352A16D916
:10057000372B00D11FE1DAB2372A00D204E1382B41
:1005800000D12FE1F12A00D04EE10022B24B1A80B7
:1005900000203200210004F0A9F80500DCE7332B2D
:1005A00000D1A9E0332A00D9D6E0AA4B1968242348
:1005B000CB5C25228A5C12021A432623CB5C1B04E7
:1005C0001A432723CB5C1B061343002B00D120E1E9
:1005D000A44A10689847B2E79E4B19680B794A798C
:1005E00012021A438B791B041A43CB791B0613435F
:1005F000002B00D10DE19849984898479FE7954B0B
:1006000019680B7A4A7A12021A438B7A1B041A432E
:10061000CB7A1B061343002B00D1FAE0914A1068F5
:100620008D4A8E4998478AE78A4B19680B7B4A7B2B
:1006300012021A438B7B1B041A43CB7B1B0613430A
:10064000002B00D1E5E084498448984777E7814B47
:1006500019680B7C4A7C12021A438B7C1B041A43D8
:10066000CB7C1B061343002B00D1D2E07B4A1078D1
:10067000421E9041C0B2984761E7764B19680B7DE6
:100680004A7D12021A438B7D1B041A43CB7D1B0645
:100690001343002B00D1BCE06F49704898474EE7E8
:1006A0006C4B19680B7E4A7E12021A438B7E1B0428
:1006B0001A43CB7E1B061343002B00D1A9E0694AE5
:1006C0001068654A6549984739E7624B19682023E5
:1006D000CB5C21228A5C12021A432223CB5C1B04CE
:1006E0001A432323CB5C1B061343002B00D190E05D
:1006F0005C4A1068984722E7564B19682823CB5C60
:1007000029228A5C12021A432A23CB5C1B041A4357
:100710002B23CB5C1B061343002B7AD0514A106865
:100720004D4A4E4998470AE74A4B19682C23CB5C3F
:100730002D228A5C12021A432E23CB5C1B041A431F
:100740002F23CB5C1B061343002B62D0454A106855
:10075000414A42499847F2E63E4B19683023CB5C48
:1007600031228A5C12021A433223CB5C1B041A43E7
:100770003323CB5C1B061343002B4AD0394A106845
:10078000354A36499847DAE6324B19683423CB5C50
:1007900035228A5C12021A433623CB5C1B041A43AF
:1007A0003723CB5C1B0613439BB32E4A10682A4A9F
:1007B0002A499847C3E6274B19683823CB5C39226E
:1007C0008A5C12021A433A23CB5C1B041A433B2374
:1007D000CB5C1B061343E3B1224A10681E4A1F4933
:1007E0009847ACE61B4B19683C23CB5C3D228A5CE6
:1007F00012021A433E23CB5C1B041A433F23CB5CFB
:100800001B0613432BB1174A1068134A1349984724
:1008100095E60022104B1A8040F6C41200210F48C2
:1008200006F0D2FF04208DE600208BE621000E4862
:10083000683006F02BFD6B4603221021012006F0E4
:1008400055FB032500E0E225280011B00CBC9046C2
:100850009946F0BDA8A40020C8A4002094960020CA
:10086000D0A40020ACA40020044C0400F0B5C6467F
:1008700000B582B005004378002B00D19AE2836B6B
:10088000002B00D196E2446AA38B9B0505D5238BF0
:100890009B0502D540F20023A383A38BDB0505D57E
:1008A000238BDB0502D540F20013A383A38B1B0629
:1008B00004D5238B1B0601D58023A383A38B5B0662
:1008C00004D5238B5B0601D54023A383A38B9B0612
:1008D00004D5238B9B0601D52023A383A38BDB07A1
:1008E00003D5238BDB0700D57AE0A38BDB0603D58A
:1008F000238BDB0600D57FE0A38B5B0703D5238B1F
:100900005B0700D584E0A38B1B0703D5238B1B0754
:1009100000D585E040F20713E35CDB0630D540F2FA
:100920000913E35CDB062BD56E6CF379022293434B
:10093000F371F37B9343F3733768002F00D195E095
:10094000E96C0822386806F0DCFE102240F207133A
:10095000E2544022033BE2543A689179D3791B0276
:100960000B43002B77D107222123EA5402233B7249
:1009700008237B60BB693360FB680BB13800984784
:1009800040F20713E35C9B0700D4B6E040F2091382
:10099000E35C9B0700D4B0E06B6C9E68002E00D136
:1009A000ABE02122AA5C082A67D0316A002900D076
:1009B00082E0327C51B200296FDB05212122A9544B
:1009C00000223272B2699A60F3680BB13000984726
:1009D000022240F20713E2544022033BE2548CE02F
:1009E0000123A383A3821023A38323830022042152
:1009F000686BAB6B984778E71023A383A38201232E
:100A0000A383238300220321686BAB6B984773E7B2
:100A10000423A38300220721686BAB6B984772E71E
:100A200000222123EA54237B1B079B0FA54AD25C9B
:100A30003023EA5428004C304022002106F0C4FE46
:100A4000AB6B1BB100220221686B98478023A37215
:100A50000823A3835EE713787F2B03D80222212388
:100A6000EA5483E706222123EA547FE70122212367
:100A7000EA541022E733E25482E7002221216A542B
:100A80003272B16999607260F3680BB130009847B7
:100A9000022240F20713E2542FE07F231A403274FF
:100AA0002B6E9B0B9B032B66022240F20713E25432
:100AB0008022023BE25420E09F89B94200D88FB2E5
:100AC000E86D7368591A33689C4661443A0006F031
:100AD00018FE336ADB1B33622B6E9B0B9B032B666A
:100AE0002B6E43F6FF723A401A432A66022240F206
:100AF0000713E2548022023BE25440F20713E35C06
:100B0000DB076AD540F20913E35CDB0765D56B6C44
:100B100098462123EB5C052B28D043461E68002E07
:100B200040D02B6D43F6FF771F40306A73683A1848
:100B30009A4201D91F1ABFB2E96C33689C466044DF
:100B40003A0006F0DEFD336AFB18336272689342A6
:100B50002FD243469B88BB4200D999E0402240F205
:100B60000413E25401220333E25436E0434618688A
:100B700088B1002303722122AB540121E632A15433
:100B80004021033AA1544246816911604360C36821
:100B90001BB3984721E004222123EA540122E733C2
:100BA000E2541AE003222123EA540122E733E254FB
:100BB00013E00023337207222123EA540122E63393
:100BC000E2544022033BE2544346B2691A60336A5E
:100BD0007360F3680BB130009847238C9B0700D4F7
:100BE00093E040F22913E35CDBB2019340F2271358
:100BF000E35CDBB20093009B1B070FD5019B1B0737
:100C00000CD58623EB5C9B0708D58622AB5C0221C2
:100C10008B43AB54082240F22713E254009B9B07FE
:100C200073D5019B9B0770D5AE6CB06800286CD063
:100C3000036A002B48D1037C5AB2002A2BDB002325
:100C400003728369B360C36803B19847B3688BB319
:100C50001A6AB089824200D890B259688A1A196813
:100C60008C466244EA671A6A121A1A628023E958AB
:100C7000890B8903E950E95843F6FF7202400A43A1
:100C8000EA500A2140F22712A154023AA3543CE050
:100C9000012333728FE77F22134003748022AB5805
:100CA0009B0B9B03AB500A2140F22713E154023BFC
:100CB000E2542AE00A2340F22812A354013AA35432
:100CC00023E0C046607A0400B689B34200D89EB2E1
:100CD0004268D31A026894466344EB67036A9B1B1D
:100CE00003628023E958890B8903E950E95843F6E8
:100CF000FF7232400A43EA500A2140F22712A154FF
:100D000002210232A154043AA354238C9B0751D5EB
:100D100040F22913E35CDBB2019340F22713E35C5A
:100D2000DBB20093009B5B070CD57623EB5C9B0743
:100D300004D57622AB5C02218B43AB54042240F2F3
:100D40002713E254009BDB0734D5019BDB0731D529
:100D5000AE6C306870B32B6F43F6FF721A40036AB3
:100D6000D318036241688B420DD2B188914225D8D5
:100D70000268D318EB66052240F22713E2544022A2
:100D8000033BE25416E00023037283693360036A75
:100D90004360C36803B19847336893B11B68EB663F
:100DA000052340F22712A3540232A35440222033D9
:100DB000FF33E25402B004BC9046F0BD012303723D
:100DC000E3E7052340F22812A354013AA354F1E7C4
:100DD00088A400201C00000000000000008000200B
:100DE000100100000000000080A30020500000005F
:100DF00001000000D96F040027770400F977040090
:100E00000778040015780400CD760400A973040067
:100E1000D151040059260400752A04009D370400AE
:100E20006D310400E96B040089710400BD150400F4
:100E3000E94D0400854E0400732A0400BF500400ED
:100E40000000000010810020A00000000000000051
:100E50005CA400202C00000000000000C4A10020C1
:100E6000EC00000000000000CCA400200100000005
:100E700000000000B08100207200000000000000AF
:100E8000248200200800000000000000A4A400202C
:100E900004000000000000002C820020240000005C
:100EA00000000000CDA400200100000000000000B0
:100EB000CEA4002001000000000000001CA40020BF
:100EC00040000000000000005082002008000000E8
:100ED00000000000A8A400200400000000000000A2
:100EE00094960020C409000000000000C8A400205F
:100EF0000200000000000000ACA40020040000007C
:100F000000000000CFA4002001000000000000004D
:100F1000D0A400200100000001000000FF0000003C
:100F200058820020C409000000000000D0A3002067
:100F30004C00000000000000D1A4002001000000CF
:100F400000000000D2A4002001000000000000000A
:100F5000CAA4002002000000000000001C8C002039
:100F6000C809000000000000B0A2002070000000CE
:100F700000000000E49500200C00000000000000CC
:100F8000B0A400200400000000000000B4A4002071
:100F90000400000000000000F0950020A000000008
:100FA00000000000B8A400200400000001000000C0
:100FB00020A3002020A3002060000000010000000A
:100FC00000000000EC7204000C730400CC720400FA
:100FD0000000000000000000000000000000000011
:100FE0000000000000000000000000000000000001
:100FF00000000000000000000000000000000000F1
:1010000000000000000000000000000000000000E0
:1010100000000000000000000000000000000000D0
:1010200058A000206C0100000100000043000000F7
:1010300000000000000000000000000000000000B0
:10104000000000000000000000000000430000005D
:101050000000000000000000000000000000000090
:10106000000000000000000000000000430000003D
:101070000000000000000000000000000000000070
:10108000000000000000000000000000430000001D
:101090000000000000000000000000000000000050
:1010A00000000000000000000000000043000000FD
:1010B0000000000000000000000000000000000030
:1010C00000000000000000000000000043000000DD
:1010D0000000000000000000000000000000000010
:1010E00000000000000000000000000043000000BD
:1010F00000000000000000000000000000000000F0
:10110000000000000000000000000000A9750400BD
:101110006D72040000000000983504003579040069
:1011200034790400347904003479040034790400FB
:1011300034790400347904003479040034790400EB
:1011400034790400FFFFFFFFFFFFFFFFFFFFFFFFFA
:10115000FFFF000001004153434949000000000027
:10116000000000000000000000000000000000007F
:101170000000000000004153434949000000000006
:10118000000000000000000000000000000000005F
:101190000000000000000000BCA4002004000000CB
:1011A00000000000C0A400200400000000000000B7
:1011B000909600200400000000000000C4A400205D
:1011C000040000000000000000000000000000001B
:1011D000F0B59BB00390029115001C0020B183690B
:1011E00004930BB904F054FD964B029A9A4260D1D5
:1011F000039B5B680293029B9B891B0767D5029B3D
:101200001B690493002B62D000220D92202208ABB0
:101210005A76302204959A76049D2B78002B60D163
:10122000049BEE1A66B13300049A0299039805F004
:1012300003F9431C00D15BE10D9B9E1904930D96AD
:101240002B78002B00D153E1012208AE524272608C
:101250005322002304A97C4F521801350893F360F0
:10126000B3601370223705222978380006F0B4F9EC
:101270006A1C002839D13068C30604D553232021C5
:1012800004AFDB191970030704D553232B2104AFD6
:10129000DB1919702B782A2B2FD000200A21F36834
:1012A0002A78303A092A00D870E000282CD0F36060
:1012B0002AE0664B029A9A4202D1039B9B6899E707
:1012C000634B029A9A4296D1039BDB6892E702999C
:1012D000039802F019FF002896D0012040421BB06D
:1012E000F0BD252B9CD0013597E70123C01B83401F
:1012F000316815000B433360B5E72368211D002BCF
:101300003EDBF36015000C002B782E2B0AD16B7896
:101310006A1C2A2B42D122680235231D002A3ADB9F
:101320001C007260484F297828370322380006F0E5
:1013300053F930B14023C01B834032680135134359
:101340003360414F6B1C38002978532506222C301E
:101350000493317606F040F9327E04ABED18692A29
:1013600032D03ED8582A00D1C9E029D8002A00D16D
:10137000F2E0522504ABED1801232A700C9350E0E3
:101380005B42F360022303433360BBE74B43013509
:101390009B18012084E701225242C1E70023150077
:1013A0000A201A00736029783039092903D9002BE3
:1013B000B8D07260B6E74243013552180123F2E714
:1013C000632A26D0642AD4D10899221D0B062ED573
:1013D00023681400002B02DA2D225B422A700A22B5
:1013E00045E0732A00D1B9E008D86F2A24D0702ACA
:1013F000BFD1202332681343336003E0752A1BD02A
:10140000782AB6D15523782204A95B181A701137AF
:1014100079E0522504ABED18237804342B700123B6
:1014200033615323002204A95B181A7042E0236839
:101430004906CED51BB2CCE7089B211D180609D55D
:1014400023680BE0EC720400F46A04000C730400DF
:10145000CC7204005B06F3D523689BB20C006F2AA4
:1014600069D00A225321002004AD49190870099956
:101470000A91002900DA97E00420089D8543089529
:10148000002B5AD1002900D090E0532504ABED1871
:10149000082A0AD1089B0593DB0706D5099A0C9BFD
:1014A0009A4202DC3023013D2B70532304AA9B187F
:1014B0005B1B0C93404B07AA009308A9029B03985F
:1014C00002F070FF431C13D00C9B2A000299039872
:1014D00004F0B2FF431C0BD0089B002505939B072B
:1014E00056D4079A0B9B934200DA13005A1C56D12C
:1014F000029B0D989B895B0600D4F0E6EDE6552330
:1015000004A95B181A70089A211D130601D52368D7
:1015100003E05306FBD523689BB20C00D10702D52C
:1015200020210A4308921022002B9BD120210898E9
:101530008843089096E7082294E7532504A96D187C
:10154000B3FBF2F1100048431B1AFB5C013D2B700A
:101550000B000029F4D19BE73261ABE72568726884
:1015600000212800271D06F037F808B1401B7060E5
:10157000099B3C0005930C9353E7292204A90123FE
:1015800052180398029904F057FF431CB0D001355C
:101590000B9B079A05939B1A9D42EEDBA1E70D9AE0
:1015A000D31805920D9337E6002BC6D1522504AB14
:1015B000ED183B782B706BE739640400F0B5D64624
:1015C0004F464646C0B5050016000F270F404CB2E7
:1015D000E20F431E033300D970E10823F356022BB8
:1015E00000DD6EE1012F00D96EE1436A98463B00B1
:1015F00010339B00C3185B68D2009A46924453464E
:10160000DB79DB0700D462E1726853469B88B2FB4A
:10161000F3F14B439A420CD0002C00DB5AE1C37823
:10162000002B00D059E1AB7B012B22D07F20404220
:101630003FE1002C09DBC378002BF4D00023B36119
:101640000323337240F2000950E1337CD90704D5FB
:101650001AB18022524213433374EB78002BE2D04C
:101660000023B3610323337240F2000973683362CD
:101670003EE10023AB730A20285605F02DF8814681
:101680002DE11B787F2B03D802222123EA5460E14D
:1016900006222123EA545CE12B6D43F6FF741C40C3
:1016A000306A736822189A4201D91C1AA4B2E96CF4
:1016B00033689C466044220006F023F8336AE3183E
:1016C0003362726893421AD30023337208222123B3
:1016D000EA540123FF3241468B5402328B5440229C
:1016E0000433FF33CA54336A73605346B2691A60D5
:1016F000F368002B00D1C8E030009847C5E053469E
:101700009B88A34219D90123337208212122A954AD
:10171000E63241468B5402328B5440220433FF336D
:10172000CA54336A73605346B2691A60F368002B77
:1017300000D1AAE030009847A7E0012340F2071249
:1017400041468B5402328B5440220433FF33CA5437
:101750009BE000232122AB5433720123E632414641
:101760008B5402328B5440220433FF33CA54534605
:10177000B2691A60F368002B00D186E03000984708
:1017800083E02123EB5C062B13D0072B7DD10822AD
:101790002123EA542B6E9B0B9B032B660223FF3203
:1017A00041468B5402328B5480220433FF33CA5497
:1017B0006BE0336A52469488A34200D29CB2E86D33
:1017C0002200316805F09DFF336A1B1B336209223A
:1017D0002123EA542B6E9B0B9B032B662A6E43F648
:1017E000FF73234013432B66022340F20712414646
:1017F0008B5402328B5480220433FF33CA5444E0AA
:10180000002C12DB31687B01EA18D1641F004744C9
:10181000052240F207117A543B000A33FF331A7055
:10182000402240F20413FA542FE0316A53469C8858
:10183000A14200D88CB27368591A33689C4661443F
:101840007B01EA18D165316A091B3162106E800B89
:1018500080031066106E43F6FF712140014311664C
:101860001F0047440A2240F207117A543B000A3312
:10187000FF331A70802240F20513FA5405E01A0073
:101880009369002BFBD19661F261EB78002083B95C
:101890004B465BB1AA7A53B2002B07DB5B091F21D1
:1018A000114001228A409B002F495A500123AB73FB
:1018B00000201CBC90469946A246F0BD7D204042C7
:1018C000F7E77B204042F4E77C204042F1E77620B6
:1018D0004042EEE77D204042EBE740F20009002362
:1018E000B36103233372002C00DABFE600233362B6
:1018F00053461A68002AC3D1042333720023F361CC
:1019000053461E60002F00D07AE7002C00DA38E73B
:101910002123EB5C032B00D1BEE6042B00D118E79A
:10192000012BB2D1E96C0822306805F0EAFE4022B2
:1019300040F204134146CA541023C7328B5402327A
:101940008B5433689A79002A00D09AE60722212323
:10195000EA545346B2691A6002233372F368002BCB
:1019600093D03000984790E700E100E0F7B54302DC
:101970004A025B0A520A4E004400019300939446C7
:10198000240EC50FDB00360EC90FD200FF2E00D18A
:101990000AB901204140A01BA94200D098E00028CC
:1019A0002CDDBEB9002A00D138E1411E71B90124F5
:1019B0009B185A0155D50134FF2C00D12CE101228E
:1019C0009B491A405B080B4013434AE0FF2807D1AC
:1019D000FF2446E0FF2C44D08021C9040A430100C3
:1019E0001B2901DD012207E010002026C840711AE2
:1019F0008A40511E8A4102439B18DAE7F0B154B97C
:101A000033B1C04310B99B183400D2E7FF2E08D180
:101A10001300340025E0FF2EFAD08021C904404293
:101A20000B431B2801DD0123EDE719002024C140F1
:101A3000201A8340581E83410B43E4E7611CFF26B4
:101A40000F003740012F3CDC4CBB002B00D1DEE007
:101A50003AB19B188022D204134202D00124754A65
:101A600013405A0704D00F221A40042A00D004332E
:101A70005A0105D50134FF2C00D1D6E06D4A134040
:101A8000DB08FF2C03D113B18022D20313435B0286
:101A9000E4B2E405580AED0720432843FEBD002BBD
:101AA00000D1B6E03400002ADBD08023019ADB03AA
:101AB0001A4203D062461A4200D10092009BDB001A
:101AC00086E7FF2900D1A6E09B185B080C00C8E759
:101AD000002824DD96B9002A00D19FE0411E31B9CB
:101AE00001249B1A5A01BCD59B019E0972E0FF2874
:101AF00000D16DE71B2908DD01220EE0FF2CB0D0DC
:101B00008021C9040A430100F4E710002026C840E0
:101B1000711A8A40511E8A4102439B1AE2E7F8B1CA
:101B20005CB93BB1C04318B9D31A34000D00D9E7F2
:101B3000FF2E08D1130034001EE0FF2EFAD08024BF
:101B4000E404404223431B2801DD0123ECE71C0091
:101B50002025C440281A8340581E83412343E3E7CD
:101B6000FF20661C0640012E2DDCBCB933B91D00D8
:101B7000002A00D175E713000D0072E7002A00D19A
:101B80006FE78026981AF604304201D0D31AF3E7A3
:101B90000300002800D064E71D0062E71BB9FAB318
:101BA00013000D0014E70400002A00D159E7802338
:101BB000019ADB031A4281D062461A4200D07DE7C7
:101BC00000920D007AE780209E1AC004064215D0CC
:101BD0000D00D61A300004F077FE3300053883403C
:101BE000844210DC041B1A0020200134E240041B54
:101BF000A3405E1EB3410024134332E7002EE9D117
:101C000033003400C8E7241A0A48034029E71300C8
:101C100027E71300DCE60C00002322E7040020E79E
:101C2000802304009B0415001BE7002328E7C0461F
:101C3000FFFFFF7DFFFFFFFBF7B54602730A80261B
:101C400044004A024F00520A240E3F0EF60400934D
:101C5000C50F0192DB00C90FD200E01BB4468D42D4
:101C600000D097E000282CDDBFB9002A00D133E175
:101C7000411E71B901249B185A0154D50134FF2C1F
:101C800000D127E1012299491A405B080B40134318
:101C900049E0FF2807D1FF2445E0FF2C43D0310065
:101CA00011430A0001001B2901DD012207E0100099
:101CB0002026C840711A8A40511E8A4102439B184F
:101CC000DAE7F0B154B933B1C04310B99B183C0006
:101CD000D2E7FF2F08D113003C0024E0FF2FFAD0F9
:101CE000310019430B0040421B2801DD0123EDE7C1
:101CF00019002024C140201A8340581E83410B4301
:101D0000E4E7611CFF270E003E40012E3BDC44BB94
:101D1000002B00D1D9E032B19B186246134202D0A9
:101D20000124734A13405A0704D00F221A40042A90
:101D300000D004335A0105D50134FF2C00D1D2E084
:101D40006B4A1340DB08FF2C03D113B18022D2036E
:101D500013435B02E4B2E405580AED07204328432D
:101D6000FEBD002B00D1B2E03C00002ADBD0802376
:101D7000009ADB031A4203D0019A1A4200D1009262
:101D8000009BDB0087E7FF2900D1A2E09B185B08DE
:101D90000C00C8E7002824DD97B9002A00D19BE099
:101DA000411E31B901249B1A5A01BCD59B019E09E1
:101DB0006EE0FF2800D16EE71B2908DD01220EE04E
:101DC000FF2CB0D0310011430A000100F4E71000ED
:101DD0002026C840711A8A40511E8A4102439B1A2C
:101DE000E2E7F8B15CB93BB1C04318B9D31A3C0083
:101DF0000D00D9E7FF2F08D113003C001EE0FF2F94
:101E0000FAD034001C43230040421B2801DD01238B
:101E1000ECE71C002025C440281A8340581E83414B
:101E20002343E3E7FF20671C0740012F2ADCACB9FE
:101E300033B91D00002A00D175E713000D0072E7C9
:101E4000002A00D16FE7981A304201D0D31AF5E783
:101E50000300002800D066E71D0064E71BB9EAB361
:101E600013000D0017E70400002A00D15BE7802370
:101E7000009ADB031A4283D0019A1A4280D1009261
:101E80000D007DE760469E1A064215D00D00D61A59
:101E9000300004F019FD330005388340844210DC23
:101EA000041B1A0020200134E240041BA3405E1EE4
:101EB000B3410024134336E7002EE9D13300340048
:101EC000CAE7241A0A4803402DE713002BE7130042
:101ED000E1E60C00002326E7040024E78023040049
:101EE0009B0415001FE700232CE7C046FFFFFF7D82
:101EF000FFFFFFFB30B585B004000E2915D083002D
:101F00001B18DB00864AD3181B7D63B983001B189E
:101F1000DB00D318DD6835B183001B18DB00D31854
:101F20001B690022A84705B030BD83001B18DB00E9
:101F30007B49CB180021197511787F230B40012BA9
:101F400013D0212B00D0E1E083001B18DB00744983
:101F5000CB18DD68002D00D1D8E053780B2B00D9C9
:101F6000CAE09B006F49CB589F4653780A2B57D045
:101F70000B2B48D0062B09D083001C18E400684BBB
:101F80001C196068012104F0C7F9CCE7D378212B34
:101F900009D0222B1FD0A3001C19E400604B1C1990
:101FA00001232375BFE783001B18DB005C49CB18B6
:101FB00099689079D3791B0203430A689A4200D941
:101FC0001A00A3001B19DB005549CB18596A586841
:101FD00004F056FADFE783001B18DB005049CB18EA
:101FE0009B689079D2791202196802438A4200D91B
:101FF0000A005968A3001B19DB004948C318586838
:1020000004F03EFAC7E79278474B1A7083001C1819
:10201000E400434B1C196068002104F07DF982E75D
:1020200083001C18E4003E4B1C19606801223E49E5
:1020300004F026FA77E702A9D3780B7093784B70F7
:102040009079D3791B0203434B80A3001B19DB005B
:10205000334AD3181B690A0000212000A84762E711
:102060000F20684493780370A3001B19DB002C49F0
:10207000CB181B69020001212000A84753E7830009
:102080001B18DB00264AD3181B6900220221A8472F
:1020900049E701A9D3780B7093784B709079D37985
:1020A0001B0203434B80A3001B19DB001C4AD318FF
:1020B0001B690A0003212000A84734E70E2068446A
:1020C00093780370A3001B19DB001549CB181B691B
:1020D000020005212000A84725E703A9D3780B704B
:1020E00093784B7083001B18DB000D4AD3181B69D3
:1020F0000A000421A84716E7A3001C19E400084BB6
:102100001C196068012104F007F90CE7A3001C19F1
:10211000E400034B1C196068012104F0FDF802E79C
:10212000B0810020286B0400CCA40020F0B545004D
:1021300085B0C30F44022D0E0391640A02930193EC
:1021400085B3FF2D39D08023E400DB047F3D1C43A1
:1021500000950027039B5D005E022D0EDB0F760AC3
:1021600003939DB3FF2D3BD0802228000025F6006D
:10217000D20416437F38039B029A5A40009B9C4628
:1021800084446346B80028430138591C0E2832D8CD
:1021900005F074FA2E2E8B7A7AAC8B7AAC7A8B7926
:1021A00079796A007CB1200004F08EFB7626431F0B
:1021B00076429C40331A0093CBE700950327002C0E
:1021C000C8D10227C6E700940127C3E730006EB1EB
:1021D00004F07AFB431F9E4076235B42181ACAE73D
:1021E00028000325002EC6D10225C4E70125C2E739
:1021F00034002F0048E0B7B2A3B2200C3C00350CED
:1022000047435C4368435D43230CED195B199F42D0
:1022100002D980256D024019A4B21D042D19AC010C
:10222000671EBC41AD0E25431C0C2418A4012C4391
:1022300023013DD5012360081C4004430D007F3578
:10224000002D37DD630704D00F232340042B00D07B
:102250000434230103D580310D00294B1C40E308D1
:10226000FE2D19DD00230CE08023DB031C4204D08B
:102270001E4202D13400039B01938023019ADB03A9
:102280002343FF2508E0029A022FEBD0032F31D021
:1022900000231D00012FD1D15802EDB2ED05400AF7
:1022A000D2072843104305B0F0BD3400039AA0E7DD
:1022B0006146C3E70120451B1B2D1DDC23002020A8
:1022C000EB40451BAC40611E8C412343590704D0B1
:1022D0000F211940042900D004338025ED041D404E
:1022E000DB08002DD8D000230125D5E7802400236A
:1022F000E403C1E70192C0E700231D00CCE7C0461C
:10230000FFFFFFF7F0B5450085B0C30F44022D0E67
:102310000391640A0293019355B1FF2D37D08023B6
:10232000E400DB047F3D1C432E000023009309E002
:102330009CB3200004F0C8FA7626431F9C407642E6
:10234000361A0095039B5D005F022D0EDB0F7F0A9E
:1023500003932DB3FF2D2DD0802228000025FF00F0
:10236000D20417437F38039B029A361A5A40009BC7
:102370009800284301380E2824D805F07FF94E9D97
:10238000639D979D634E4E976379797954002E0033
:102390000323002CCAD10223C8E726000123C5E786
:1023A00038006FB104F090FA431F9F4076235B42E0
:1023B000181AD8E728000325002FD4D10225D2E728
:1023C0000125D0E764017801844228D31A21012332
:1023D000241A012527005B006400002F01DBA042C6
:1023E00001D8241A2B4301390029F3D1611E8C41F5
:1023F0001C4331007F3100293CDD630704D00F23EB
:102400002340042B00D00434230103D531002C4B8E
:1024100080311C40E308FE2921DD002310E0013E4D
:102420001B210023D5E78023DB031C4204D01F427D
:1024300002D13C00039B01938023019ADB032343D9
:10244000FF210CE03C00039A0095009B022BE4D096
:10245000032B2FD00023009819000128C9D158025E
:10246000C9B2C905400AD2070843104305B0F0BD00
:10247000029AEAE70120411A1B291DDC23002020D3
:10248000CB40411A8C40611E8C412343590704D034
:102490000F211940042900D004338021C9041940B8
:1024A000DB080029DBD000230121D8E780240023AA
:1024B000E403C0E70192BFE700231900CFE7C0465D
:1024C000FFFFFFF710B5624B9B7DBBB1604B5B8B91
:1024D0009B0714D55F4BFF21202299540221212212
:1024E000995420235B4AD35C5BB2013300D17FE077
:1024F0002023584AD35C062B00D191E010BD544BE9
:102500005B8BDB0707D5534BFF2120229954022117
:1025100021229954E5E74E4B5B8B5B0707D54D4B6A
:10252000FF2120229954012121229954D9E7202307
:10253000484AD35C5BB2032B3DD0042B0ED0022B58
:10254000CFD1136923B19088002103F0E1FCC8E7E3
:10255000404B9888012103F0DBFCC2E73D4A9369B8
:102560001269934207D03B4A9168581C9061CA5C3B
:10257000374B9A62B5E7374B5B6973B1354B9B8834
:102580005B0001221343324A5362D369002BFCD112
:10259000032120232F4AD154A3E72D4A5168C02399
:1025A0009B020B435360D369002BFCD106212023EF
:1025B000284AD15495E7274A5369013BD2699A4288
:1025C00008D0244BD968DA69501CD861204B9B6A2B
:1025D0008B5486E71E4A5168E023DB020B435360AD
:1025E000D369002BFCD1062120231A4AD154E8E7F5
:1025F00000212023D154164A5168C0239B020B436B
:102600005360D369002BFCD19B22114B1A76114BDE
:102610005B6A002B00D171E70E4A906A98476DE71C
:102620001300002220215A5421215A549B22084B86
:102630001A76190030224B8B1340102BFBD1054B1F
:102640005B6A002B00D159E7024A906A984755E728
:10265000000800425CA40020F0B5CE46474680B595
:102660000F260E40B146012E00D9AAE040F2F835FF
:102670001C00083CA4B2AC4200D9A5E0441C00D127
:10268000A5E0476A0024082B06D908250134E4B2E6
:102690006D00ADB2AB42F9D84D461035AD004519CD
:1026A0006D68002A41D049B28C46C90FCE00B046B1
:1026B000454440F2000846462E60AB80AA71EB7993
:1026C0000126B04646463343EB716346002B61DB7F
:1026D0004B465B01FF1840F20013FD5C40F2070C13
:1026E0006646B543FD54FD5C52003A4E925D2A4366
:1026F000FA5440220533FA544B465E0076183601F0
:102700008019036D344A13400365036D2407E022EA
:10271000D20514401C430465036D5B005B08036530
:1027200000200CBC90469946F0BD2A60AB80AA718F
:102730000126E9793143E971AA60AB81AA73EB7B89
:102740003343EB7340F20013FA541122FA54026D32
:1027500021490A400265036E0B400366036D24079E
:10276000E022D205144023430365036E1C43046634
:102770000369C3644369C365036D5B005B0803655C
:10278000036E5B005B080366132240F20913FA54E0
:102790000020C6E74B465B01FF1840F20013FD5CCA
:1027A00040F2700C6646B543FD54FD5C5200944601
:1027B000084A624452782A43FA5480220433FA5475
:1027C0009AE77C204042ACE77C204042A9E77D208C
:1027D0004042A6E744790400FFFFFF8FF0B51D00DB
:1027E0004D4B85B01E6804000F00009226B1B369FE
:1027F00013B9300003F04CFA484B9C424FD1746837
:10280000009B022B05D0012B00D982E0002D00DABD
:102810007FE02100300003F0F9FB616B41B1230040
:102820004433994202D0300002F0BEFB00236363C0
:102830000023A3616360A3891B0603D521693000CF
:1028400002F0B2FBA389364A1340A381009B022BFE
:1028500059D003AB02AA2100300003F0A1FCA389E8
:102860001843A0812DBB029D280004F011FF0195A3
:102870000700002841D1029B0193AB4237D10120D0
:1028800040420223A2891343A3810023A3602300B3
:102890004733236023610123636105B0F0BD214B01
:1028A0009C4201D1B468ABE71F4B9C42A8D1F468AD
:1028B000A6E7002FD8D0B36913B9300003F0E8F9C8
:1028C000009B012B03D1A389009A1A43A2810820FF
:1028D000A3892760184027616561C0B101201840B5
:1028E000002390B16D42A360A5611800D5E701985F
:1028F00004F0CEFE07000028C1D08023A289019DEC
:102900001343A381D7E70020BBE7A560C5E7A0601C
:10291000C3E701204042C0E7B8A40020EC720400E5
:102920005CF3FFFF0C730400CC720400F0B583B0BD
:1029300005000C004B78032B00D179E0DAB2032AB2
:1029400021D9052B2ED0092B00D08CE08A78CB78AA
:102950001B02134323B9C17807220A40052A2FD04E
:10296000AD22AA5CDBB29A4200D17EE0AE23EA5CE3
:10297000002A3FD0B023EB58013AD1B2013189008F
:102980005918B4272FE0012B00D06CE08A78CB785F
:102990001B0213430121012B0DD10022C023C2547D
:1029A000002108E0027880235B42134303708A7899
:1029B000AC23C2540021280003F0AEFC03B0F0BDEC
:1029C0000B22B823C25403F013FC0022AD23EA54B7
:1029D000EB780722934304221343EB700021EAE7CC
:1029E00004338B4206D01A685679A0788642F7D114
:1029F000EA51F5E7A278AD23EA54280002F06CFC16
:102A0000EB780722934305221343EB70A27801ABC6
:102A10001A70D523EB5C0021012BCCD1D823EB58C5
:102A20002BB3DC22AA5801A90A2098470021C2E74B
:102A30008A78CB781B021343012B0FD00121022B84
:102A4000B9D102780E231340022BB4D1637983707D
:102A500043780122134343700021ACE70122C023D5
:102A6000C2540021A7E70121A5E70021A3E7002127
:102A7000A1E77047F8B504000E000F250D40012DA9
:102A800001D9102963D1631C64D0676AE378002BF5
:102A900063D1A37B012B02D07F20404286E000233C
:102AA000A3730A20205603F017FE020056E040F2FE
:102AB000081010233B5440F207117B540026F033DA
:102AC000FE547F233B547B54606CC57901218D43B8
:102AD000C571C57B8D43C57340F220103E5408304C
:102AE0003B5401383B54A36CD8798843D871D87BC8
:102AF0008843D87347E076B2002E19DB6B01FF18CC
:102B000040F200117B5C072083437B54052307318F
:102B10007B540937FF373B701035AD0065196B6882
:102B2000F60FF6009E19F37901218B43F3712AE029
:102B30006B01FF1840F200117B5C702083437B54D3
:102B40000A2307317B540937FF373B70E4E77C20C9
:102B500040422BE07D20404228E00022102EA6D0EB
:102B6000002DC8D17F2340F208117B5401397B54DA
:102B700000218133F954636CD97901208143D971E3
:102B8000D97B8143D973E37800207BB95AB1A27A0B
:102B900053B2002B07DB5B091F21114001228A4041
:102BA0009B0003495A500123A3730020F8BDC0467F
:102BB00000E100E010B5464B1B78012B13D013B198
:102BC000022B22D010BD0321002003F0EFFE404B6A
:102BD0005860431CF6D000223E4904F05FF9012200
:102BE0003B4B1A70EEE73A4B1B7C002BEAD038497E
:102BF00000234B7701238B7702230B708A681831EF
:102C00004023002001F036F8DCE7314B1B7C002B21
:102C100052D02F4B5B7F002B52D12D4B9B7F002B33
:102C2000D0D02D4B1B78002BCCD02C4B1B881A1CE2
:102C30009BB2402B00D9402292B2294B1A60244CFF
:102C40000023A37740220021E06804F0BDFD244B5F
:102C50001A68244B1968244BC918E06804F004FA78
:102C6000E268210014314023002000F089FF002891
:102C7000A8D11B4B19681B4B1A6852181A60174AC7
:102C800013885B1A9BB21380002B9BD10024124B3C
:102C90001C7040F6C4120021134804F095FD114B3E
:102CA0001C600F4B1C600A494C778A68183140231E
:102CB000002000F0DFFF85E70122054B1A7081E755
:102CC0000A4802F081FF0022014B5A777AE7C0469A
:102CD0003096002051610400D2A40020CAA4002034
:102CE000B4A40020B0A40020208C00205096002026
:102CF000F0B583B004000D0016000823C356002B66
:102D00004DDD092900D97BE08B00444AD3589F460A
:102D10004378042293434370E427C3591B6C00217A
:102D2000C0699847E3591B6C8021E06998472000EF
:102D300003F05EFAE3595B6A1021E0699847E359B2
:102D40001F6A402300228021E069B8479023E356A0
:102D5000022B26DDE3780722934303221343E3701B
:102D6000E423E3581B69E0699847072303405B00AD
:102D700020780E22904318432070E2680E231840FA
:102D8000022817D0B0239168E1501279AE23E254A3
:102D90000022AD23E254D523E35C012B33D003B0F2
:102DA000F0BD22008832E423E3589B6B0021E069E8
:102DB0009847CFE7B0235169E150127CAE23E2542B
:102DC000E6E74378042293434370E4E74378042220
:102DD00013434370DFE7E423C3585B69C069984736
:102DE00001AE30800725D6E7C3780722934301223E
:102DF0001343C370CFE7C37807229343C370CAE776
:102E0000002DCCD0C7E7D823E358002BC7D0DC2255
:102E1000A258310028009847C1E7C0464C6E040014
:102E200070B584B004000D000378012B26D02BB1BF
:102E3000022B43D0032B60D0E2201DE03F4E310037
:102E40001831132204F05DFC200004F0EAFC0300BA
:102E500031002C314FF6FF70184020180A230293DE
:102E60000023019301230093002203F075FC20004E
:102E700004F0D7FC2880002004B070BD2F4E310034
:102E80004431092204F03DFC200004F0CAFC030098
:102E900031002C314FF6FF70184020180A2302939E
:102EA00000230193042300930123002203F054FC28
:102EB000200004F0B6FC28800020DDE71F4E310022
:102EC0005031092204F01DFC200004F0AAFC03008C
:102ED00031002C314FF6FF70184020180A2302935E
:102EE0000023019301230093002203F035FC20000E
:102EF00004F097FC28800020BEE7104E31005C31C2
:102F0000092204F0FEFB200004F08BFC03003100DA
:102F10002C314FF6FF70184020180A23029300232B
:102F20000193022300930123002203F015FC2000EB
:102F300004F077FC288000209EE7C0469C36040001
:102F400030B583B018B10120404203B030BD404BD2
:102F50001B7813B101204042F7E73D4B01229A73E1
:102F60001A7020201A544C685C62C87B587200208A
:102F70005870986318718D7A9D72CD7ADD720D7BD1
:102F80001D734D7B5D73D87022705A6A012093784F
:102F90000342FCD10A23D3702E4B1B685B0B0193B9
:102FA000019A1F2313401F2B31D0294A526A108DDA
:102FB0009B0103431385019B9B05DB0E1F2B28D030
:102FC000108D03431385019BDB045B0F072B22D07D
:102FD000108D1B03034313850B7A1BB11378042058
:102FE000034313701A4B5B7A012B16D0184A516AAF
:102FF0000B78022003430B70516A02228B78134234
:10300000FCD102212023124AD15400209DE7052340
:10301000CBE71D23D4E70323DAE70D4B5A6A1800E8
:103020004C30506200203C2298540A6A1A645A6A52
:1030300013890C208343897B032906D09BB213811B
:103040000021034803F0E6FDD0E704210B43F5E738
:10305000008000201C60800070B582B00500140064
:1030600000226B46DA710E2901D002B070BDEC2649
:1030700046433D4B9E19A279E3791B02134332006C
:10308000E03213803300E4331B681B6C8021F0694D
:1030900098472378DB06DB0EDAB2012A2AD04AB140
:1030A000022A38D0032AE0D122000E21300003F09A
:1030B000DDFDDAE722786023134063B952B2002ABB
:1030C00004DB21003000FFF731FCCEE721003000A7
:1030D00000F05EFCC9E7402B06D0202BC5D10121B2
:1030E000300003F019F9C0E722000E21300003F090
:1030F000BDFDBAE7227860231340402B05D021792B
:103100002200300003F09AF8AFE721792200300066
:1031100003F094F8A9E7217951B9237860221A4283
:103120001BD16B46D9792200300001F083FF9CE768
:103130006B46DA1D300003F0EFFAEC236B430A4DC7
:10314000ED18EA7807231340052B01D10028E4D1BC
:103150000121300003F0E0F887E76B46D9792200BF
:10316000300003F06BF880E7C4A10020F8B5CE462C
:10317000474680B505000F000F240C40012C57D89E
:10318000431C58D0436A9846230010339B00C31851
:103190005E68C378002B51D1837B012B02D07F2046
:1031A000404235E0002383730A20285603F094FA46
:1031B000814645E0F72240F204134146CA547F227B
:1031C0000333CA54F3790227BB43F37104246442E6
:1031D0002100300003F0C6FEF37BBB43F3733000E5
:1031E0000830210003F0BEFEEB78002083B94B4687
:1031F0005BB1AA7A53B2002B07DB5B091F21114098
:1032000001228A409B001C495A500123AB730020C5
:103210000CBC90469946F8BD6401444440F2041346
:103220002022E2544021E732A1540222E254DBE79B
:103230007C204042ECE77D204042E9E740F2000973
:10324000002CB7D07FB2F80FC0003018C37902222B
:103250009343C3710421494203F084FE002FDBDB5A
:103260006401444440F204131022E2542021F73256
:10327000A1540122E254B7E700E100E0F7B58A89E2
:1032800005000C0013075ED44B68002B04DC0B6CAC
:10329000002B01DC0020FEBDE76A002FFAD00023DE
:1032A0002E682B6041F200031A4092B3606DA3892F
:1032B0005B0705D56368C01A636B0BB1236CC01A3A
:1032C0000200216A00232800E76AB847A189431C4D
:1032D00006D12B681D2B30D82B4ADA40D3072CD5CA
:1032E0000023636023692360CB0404D5431C01D110
:1032F0002B6803B96065616B2E600029CAD023007A
:103300004433994202D0280001F04EFE0020606351
:10331000C1E70123216A2800B847431CC7D12B68A5
:10332000002BC4D01D2B01D0162B01D12E60B1E78C
:103330004023A2891343A381ADE740230B4301201F
:10334000A3814042A7E70F69002FA3D00B680F604D
:10335000DB1B01930023920700D14B69A360019B03
:10336000002B00DC96E7019B3A00216A2800A66A40
:10337000B047002803DC4023A2891343DFE7019B09
:103380003F181B1A0193EAE70100402070B582B094
:103390000C001600087804F007FA0500C520C5B136
:1033A000687803F0D9FBB0B10100200004F014FAF2
:1033B0002B78022B32D0032B4CD0012B58D020007D
:1033C00004F02FFA20180B223049683104F099F9E3
:1033D000C52002B070BD6B78CBB92C4D2900683187
:1033E0000B22200004F08DF9200004F01AFA0300EB
:1033F000290074314FF6FF70184020180A2203F09C
:10340000ABF9200004F00DFA3080C520E1E70F226F
:103410001E497831200004F074F9C9E7200004F057
:1034200000FA201805221A49083104F06AF9200030
:1034300004F0F7F980B2AB7820180A22009200223B
:103440001349203103F088F9200004F0EAF93080B4
:103450000020BEE7200004F0E4F9201805220C4902
:10346000103104F04EF9200004F0DBF980B2E2E7FD
:10347000200004F0D6F9201805220549183104F07F
:1034800040F9200004F0CDF980B2D4E79C36040066
:103490001C370400F0B5D6464F464646C0B530B19D
:1034A000012040421CBC90469946A246F0BD00292E
:1034B00066D08B69002B66D0344B01201872002235
:1034C0001A83DA780724A243DA708A69DA600E8AEE
:1034D0001E824D695D610C7F0722144024011A7819
:1034E0007027BA4392460022914640F2C00C40F247
:1034F000000867464246DA555246224382437F24FB
:1035000022401A705A7840F2240C9C448824674662
:103510001F5140F2400C8C2467461F5198241855C7
:1035200090244F461F551A4CA446942467461F51B9
:103530009C241B51174C1C679B67742418558243AD
:10354000042082435A70D42248469854E422486AA0
:103550009850498CE822995286B100241E0005E05B
:1035600010350134E4B2338AA34207D9EB68002B4B
:10357000F6D01B69002BF3D09847F1E7002091E7C4
:10358000012040428EE7012040428BE7C4A1002089
:10359000693D0400995A04000020202020202020AA
:1035A00020202828282828202020202020202020F3
:1035B0002020202020202020208810101010101003
:1035C000101010101010101010040404040404044F
:1035D00004040410101010101010414141414141E9
:1035E00001010101010101010101010101010101CB
:1035F00001010101101010101010424242424242DB
:10360000020202020202020202020202020202029A
:103610000202020210101010200000000000000042
:10362000000000000000000000000000000000009A
:10363000000000000000000000000000000000008A
:10364000000000000000000000000000000000007A
:10365000000000000000000000000000000000006A
:10366000000000000000000000000000000000005A
:10367000000000000000000000000000000000004A
:10368000000000000000000000000000000000003A
:0936900000000000000000000031
:10369A0070470437040034370400243704002C37F9
:1036AA00040050617273657220004B697450726F26
:1036BA00746F636F6C5061727365722000002530FD
:1036CA003258282530325825303258253032582978
:1036DA002563000000005348413230344120000085
:1036EA000000414553313332412000000000454378
:1036FA00433130384120000000006E6F5F64657608
:10370A0069636520000025630000756E6B6E6F7734
:10371A006E5F64657669636500005457492000004E
:10372A000000535749200000000053504920000070
:10373A0000002530325828253032582925630000E8
:10374A0000002E2E2E2E2E2E2E2E25730D0A000050
:10375A0000000D00000025733A2025730D0A0A00A7
:10376A00000025733A202573000025733A2025733B
:10377A000D0A000000003A7400003A540000526535
:10378A006365697665640000000053656E74000025
:10379A00C046F8B5CE46474680B506000D000F2450
:1037AA000C40012C3BD8431C3CD0476A2300103301
:1037BA009B00C3185B689946C378B3BB837B012B14
:1037CA0002D07F2040425CE0002383730A203056F7
:1037DA0002F07DFF80462AE040F205132022FA54C7
:1037EA001022FA54032464422100484603F0B5FB30
:1037FA0002254B46DB792B434A46D37148460830AB
:10380A00210003F0AAFB4B46DB7B2B434A46D373CA
:10381A0023E0083464013F1920237B7111E07C20E6
:10382A0040422EE07D2040422BE040F20008002C6E
:10383A00D2D06DB2002DECDB083464013F1910239D
:10384A007B71ED0FED004D4403214942280003F03E
:10385A0084FBEB7902221343EB71F378002083B9DE
:10386A0043465BB1B27A53B2002B07DB5B091F21D7
:10387A00114001228A409B0004495A500123B37324
:10388A0000200CBC90469946F8BD00E100E070B5F6
:10389A00002865D0046801B93449630000209942C0
:1038AA004AD3324B9C4247D8080001F000FF051C5E
:1038BA00200001F0FCFE011C281CFEF71EFD061C60
:1038CA002C49281CFEF72DFC2B49FEF7B0F9011CE8
:1038DA00301CFEF746F803F01CFA274B9C422CD802
:1038EA0040F2FE13FF25984202D801283AD945082A
:1038FA002249A14289414942214A1368022083434D
:10390A001360D369002BFCD11D4BDD601A680906D0
:10391A001C480240114319601A6802210A431A60BE
:10392A001A00D369002BFCD11022144B5A831A00B7
:10393A00D369002BFCD1012070BD40F27D134FF6F4
:10394A007F759842D4D840F201250328D0D9450082
:10395A000323B5FBF3F52D02B0FBF3F00543C7E7EC
:10396A000020E9E70125C3E7C046006CDC024042BB
:10397A000F0095BFD63300002041801A06000008C8
:10398A000042FFFFFFFC30B583B005000C000023A6
:10399A0001934B78062B24D0082B67D0002B50D1EB
:1039AA00BC21435203780120C022AA5C0240520083
:1039BA00034013436B542B00BC330193022001993B
:1039CA0000293ED0A279E3791B0213431A1C9BB249
:1039DA00834200D9021C92B2280002F04CFD03B0C7
:1039EA0030BDC068CB78072B45D89B00234AD358F3
:1039FA009F462A780E231340022B03D003680193B3
:103A0A001220DCE7C36801931220D8E78B78AE2234
:103A1A00AA5C9A4215D9B022AA589B00995881B13A
:103A2A0001918B78C87800021843CBE72A78702373
:103A3A001340102BD3D004E02A7870231340102BA4
:103A4A0004D00121280002F062FCC8E70E231A40C4
:103A5A00022A03D0436A01930A20B0E7036A01935A
:103A6A000A20ACE701AA01F0CEFEA8E70300AD33B5
:103A7A0001930120A3E70020A1E70C720400F0B52E
:103A8A001E000F0085B00390019100920A983C78BD
:103A9A0003F0DDFF0822001943787D1C13405BB94F
:103AAA002D2C0BD140F2010C2C78BD1C66B1102EC6
:103ABA0014D1302C0AD011E02F00E7E79C462B2CBA
:103ACA00F4D12C78BD1CF1E7302C28D120222B7898
:103ADA009343582B47D110266C780235002224498B
:103AEA0033006144B1FBF6F710007B43CB1A029313
:103AFA002300303B092B14D81C00A6421DDD531CA1
:103B0A000AD001225242874206D302D1029BA34223
:103B1A0002DB0122704320182C780135E8E70A26D7
:103B2A00DCE72300413B192B01D8373CE5E72300AA
:103B3A00613B192B01D8573CDFE7531C07D12223DD
:103B4A00039A08001360009B4BB905B0F0BD6346A9
:103B5A0003B14042009B002BF7D0019B02B16B1EC0
:103B6A00009A1360F1E73024002EB7D10826B5E792
:103B7A00C046FFFFFF7FF8B504000D00012149424E
:103B8A002960012860D881000918C9003348095CF6
:103B9A0089075CD5A1000919C90041188E68C8694E
:103BAA00B168884256D22D494978012902D060204D
:103BBA00404212E00020294948702949097A49B24D
:103BCA0001290BDD2C21264841560127012906DD52
:103BDA000122224B5A7080204042F8BD0027F9008A
:103BEA00CE19B6001F4836187360CB199B001A50BD
:103BFA001D4BF36074612E6003F0A3FEA7003F190A
:103C0A00FB00154FFF18FB690133FB6103F09DFEB2
:103C1A00797D7868320003F0FEF9060020B90122A6
:103C2A000F4B5A703000D8E703F08BFE0B49A30004
:103C3A001A19D2008A18D369013BD36103F085FEB1
:103C4A0001235B422B60EAE778204042C5E77620F1
:103C5A004042C2E780204042BFE7B0810020208274
:103C6A000020D881002081580400F8B504000D0016
:103C7A00012149422960012860D881000918C90038
:103C8A003348095C49075CD5A1000919C9004118E4
:103C9A008E68086AF168884256D22D494978012906
:103CAA0002D06020404212E0002029494870294988
:103CBA00097A49B201290BDD2C21264841560127F0
:103CCA00012906DD0122224B5A7080204042F8BDAC
:103CDA000027F900CE19B6001F48361873601E4B2C
:103CEA00F360CB199B001A50746103F02AFEA700F7
:103CFA003F19FB00164FFF183B6A01333B6203F082
:103D0A0024FE2E60397E7868320003F084F90600BA
:103D1A0020B901220F4B5A703000D8E703F011FE88
:103D2A000B49A3001A19D2008A18136A013B1362BD
:103D3A0003F00BFE01235B422B60EAE77820404246
:103D4A00C5E776204042C2E780204042BFE7B08103
:103D5A00002020820020D8810020ED58040070B590
:103D6A0005000823C3569A1C21D04469022B1FD090
:103D7A004268002A40D1C423E25400210F232200C2
:103D8A00C432D568D822A258954256D02200C432ED
:103D9A0090880A001900A84740228C23E25022008A
:103DAA008832E069E423E3589B6B0021984770BD91
:103DBA00C423E35C6BB12300C433DB684BB1D82264
:103DCA00A258934212D02200C432908800220C21B9
:103DDA0098470122C423E2542300C4331B4ADA6001
:103DEA00228B9A80210024310E23C8E7DC22A258B4
:103DFA0000210C209847ECE7C423E35C13B32300AB
:103E0A00C43358789B78834202D800210D23B6E741
:103E1A00CC23E35818182100243103F06DFC230049
:103E2A00C4336A6859785218D2B25A709878002105
:103E3A0001239042A3D80D23A1E7DC22A25818003F
:103E4A00A847A9E70021012399E759300400F0B5F2
:103E5A00C64600B582B006000D00140001226B466A
:103E6A00DA80FF226B465A71002C42D0002942D0D8
:103E7A00002323802F4B1B78102B09D0012202F03C
:103E8A00A0FF002728B3278002B004BC9046F0BDEB
:103E9A006B46591D2B780B706F78AB7898466B463A
:103EAA009A1D02F094FC00BB3F024744BFB26B4626
:103EBA005A79102A21D0FF2A1FD07F231340302B92
:103ECA000CD0012F0AD03A002900300002F079FF05
:103EDA00D9E72F78012140F200421CE00122290093
:103EEA00300002F06EFF0127CDE70027CBE700275D
:103EFA00C9E7E220C8E7E220C6E70222290030002B
:103F0A0002F05FFF0028F2D12A7812026B789B1820
:103F1A003A009FB20221ED209742B4D8CB1CE6208A
:103F2A009F42B0DB7A1A92B26918300002F049FF58
:103F3A00A9E7CFA40020F0B5D6464F464646C0B5FD
:103F4A000600431C43D0EC224243324B9B181B7A97
:103F5A005BB2002B3BDDEC2242432E4B9B18D43341
:103F6A001B78DBB1012B32D1EC2242432A4B9B183E
:103F7A001B8A98465BB3274BEC224243D75C3F0728
:103F8A007F0F9B181A00AD32127891465D690024A2
:103F9A00EC234343204AD618B24623E0EC2343439A
:103FAA001D4CE4182300E8331888043B1B681B687F
:103FBA000F219847E061431C09D0EC237343154E47
:103FCA00F6183300D43301221A70022333721CBC50
:103FDA0090469946A246F0BD10350134E4B2A3B228
:103FEA009845F4D92B783B42F6D06B784B45F3D100
:103FFA00F27807231340052BEED153465B785B0713
:10400A00EAD4EB68002BE7D0DB68002BE4D0A88861
:10401A009847E1E7C046C4A10020A80204001002A4
:10402A000400B0020400A8020400A8020400B002BE
:10403A000400B0020400B0020400B0020400B0029E
:10404A000400B0020400B0020400B0020400B0028E
:10405A000400B0020400B0020400B0020400B0027E
:10406A000400A8020400A8020400C4030400CC034C
:10407A000400CC0304009C030400CC030400940352
:10408A000400B4030400CC030400CC030400CC03F2
:10409A000400CC030400BC030400CC030400CC03DA
:1040AA000400CC030400CC030400CC030400CC03BA
:1040BA000400CC030400CC030400CC030400E00297
:1040CA000400000404005C0404005C0404005C04B2
:1040DA000400200404005C0404005C040400F803E7
:1040EA0004005C0404004C040400080404005404A2
:1040FA0004005C0404005C04040044040400344B1F
:10410A0070B51D6806000C0025B1AB6913B928000B
:10411A0001F0B9FD304B9C420FD16C680C23E25E72
:10412A0093B219072CD4D90611D40923336040233A
:10413A0001201343A381404270BD274B9C4201D109
:10414A00AC68EBE7264B9C42E8D1EC68E6E75B07F4
:10415A0012D5616B41B123004433994202D0300039
:10416A0000F01DFF002363632422A3899343A381E4
:10417A0000236360236923600823A2891343A38170
:10418A0023695BB940F2802140F20022A3890B40E7
:10419A00934203D02100300001F04DFA0123A28995
:1041AA0013408BB10023A36063695B42A361236957
:1041BA000020002BC0D10C23E25E1306BCD540239D
:1041CA001343A3810138B7E7920700D46369A36058
:1041DA00EDE7B8A40020EC7204000C730400CC7262
:1041EA000400F0B5C64600B582B06B46DC1D00255A
:1041FA00DD712E4E70220021300003F0E0FA022019
:10420A0000F087FE2B4B1B6898472A4B1B6821003E
:10421A003000984723782570002B41D0244C013B6D
:10422A00DBB20133DD00ED1A6D006519234B40F254
:10423A00100C63449846204F203710E002F087FCA8
:10424A000100637B1D4A022B02D89B001C4A9A5824
:10425A001A4B181D03F015F80E34AC4220D06078C2
:10426A000028F9D02378022B10D0032BE6D0012B9B
:10427A00F2D102F06CFC0100637B022B0ED89B008A
:10428A000F4A9A58380002F0FCFFE5E702F05FFC9B
:10429A000100A278404602F0F4FFDDE7074AF1E7A1
:1042AA00034B187802B004BC9046F0BDC046B0A2D9
:1042BA0000204482002034820020B0600400B877D5
:1042CA0004001A0000007C7A0400160000005478EA
:1042DA0004000E0000006C790400060000007479E6
:1042EA000400130000007C7904000B0000007878B9
:1042FA000400110000008C79040005000000947984
:10430A00040002000000A878040004000000AC7950
:10431A00040000000000B479040017000000807A4D
:10432A00040012000000A47904000D000000BC790A
:10433A0004000A000000847A04000C000000B4782B
:10434A00040003000000CC79040009000000D479BD
:10435A00040007000000DC79040018000000E4797A
:10436A00040001000000CC78040014000000D87892
:10437A00040015000000E478040019000000887A9F
:10438A0004000F000000F479040010000000047A11
:10439A000400080000000C7A0400F7B51500019328
:1043AA008A680B6900900C00934200DA130022001D
:1043BA002B60433212780AB101332B6023689B06C3
:1043CA0002D52B6802332B60062723681F403FB3B0
:1043DA00230043331B785A1E93412268920630D435
:1043EA002200019943320098089EB047431C25D009
:1043FA00062320682A68E16803400025042B03D1BC
:10440A008D1AEB43DB171D40A3682269934201DD35
:10441A009B1AED180027BD4220D1002010E0013779
:10442A00E3682A689B1A9F42D2DA220001231932D2
:10443A0001990098089EB047431CF0D101204042E0
:10444A00FEBD3020E1184331087021005A1C453165
:10445A000978A218433202331170C1E722000123FE
:10446A001A3201990098089EB047431CE6D00137DA
:10447A00D1E770B505000E0018B183690BB901F0D8
:10448A0002FCAB69AC6813B9280001F0FCFB294BAC
:10449A009C4219D16C680C23E25E42F200031A4274
:1044AA0005D11343A381226E244B13402366A389AB
:1044BA001B0701D52369FBB921002800FFF71FFE5E
:1044CA00D0B10120404270BD1D4B9C4201D1AC6865
:1044DA00E1E71B4B9C42DED1EC68DCE7013B01368D
:1044EA00A360002B04DAA269934216DB0A2914D0CE
:1044FA0023685A1C226019703178A3680029EDD10B
:10450A00013BA360002B0FDA22000A21280000F0E9
:10451A00ACF9431CD5D00A20D5E72200280000F0C8
:10452A00A4F9431CE8D1CCE70A2023685A1C22606C
:10453A001870C8E7C046EC720400FFDFFFFF0C7377
:10454A000400CC720400F0B583B00400080009AB83
:10455A001B78042B4BD0052B59D10A9BDB78DB4304
:10456A009B0754D10A9B9A7853B2002B1FDB284E23
:10457A00A5002B19DB00F3181A760A990F794979E5
:10458A000902394359830A9B19795B791B020B4348
:10459A0000930323002102F068FC2B19DB009A5DCB
:1045AA0004210A439A55F51800232B622FE0184E6E
:1045BA00A5002B19DB00F3185A750A990F79497966
:1045CA0009023943D9820A9B19795B791B020B4389
:1045DA0000930323002102F048FC2B19DB009A5DAB
:1045EA0002210A439A55F5180023EB610FE00849A6
:1045FA00A3001D19ED006E5C01273E436E541D1980
:10460A00ED004D196860AA600A9B09336B6203B01A
:10461A00F0BDB08100200D2D2D2043727970746F8A
:10462A004175746820547275737420506C61746695
:10463A006F726D20202D2D0D0A2D2D20436F6D7068
:10464A00696C65643A204665622020352032303232
:10465A00312031383A32373A3036202D2D0D0A2D95
:10466A002D20436F6E736F6C65206C6F6720283145
:10467A0031353230302D382D4E2D3129206F6E20B4
:10468A00555342202D2D0D0A0D004B69745061724D
:10469A007365722056657273696F6E3A20253032DF
:1046AA005825303258253032580D0A00000044652A
:1046BA007669636520446973636F766572792E2E15
:1046CA002E2E2E0000000A25730D00000000436FF5
:1046DA006D706C657465640000000A25730D0A002C
:1046EA00C046F0B583B004000D00160004284DD072
:1046FA002A4B1B78052B20D0DAB2052A0FD9062BB4
:10470A0010D0DBB2F12B23D10A230200244928005E
:10471A0002F01DF8280003F07FF830800AE0013B20
:10472A00022B15D81F4B1A8832801A881E49280076
:10473A0002F0E2FF002003B0F0BD0A23020017498D
:10474A00280002F004F8280003F066F83080F1E748
:10475A00144B188898B1134F390000F0F1FA104B36
:10476A0018800A2300933B0022000C490C312800D0
:10477A0001F0EDFF280003F04FF83080DAE70A2352
:10478A0022000649280001F0E2FFF3E70A23042287
:10479A000349280001F0DBFFCCE7D0A40020044C39
:1047AA000400C8A400209496002070B504000301F8
:1047BA001B181A012C4B9B1820331B785BB2002B59
:1047CA000BDD1300284AD3189B6B33B103011B1866
:1047DA001B01D3185B7A012B00D070BD03011B1893
:1047EA001B01D3181B6C3BB39847050023011B1907
:1047FA001A011C4B9B183C331B788342EDD00128CD
:10480A0023D023011B191B01174AD3181B793BB16B
:10481A0023011B191B01134CE4183C342570DCE7F7
:10482A00260136193301D61800220921706BB36BA1
:10483A00984701233371EBE703011B181A01094B4F
:10484A009B183C331B78012BC7D025012D192B014E
:10485A00054DED1800220821686BAB6B98470023C1
:10486A002B710125D4E700800020F8B505000E0061
:10487A00140018B183690BB901F005FA274B9C4261
:10488A0030D16C68A369A360A3891B0734D5236957
:10489A0093B30C23E25E42F20003F7B2F6B21A4275
:1048AA0034D023682269981A6369984204DB21008C
:1048BA00280001F0A6FB28BBA3680130013BA360D6
:1048CA0023685A1C22601F706369984204D0A38926
:1048DA00DB0719D50A2E17D12100280001F091FB18
:1048EA0090B10FE00E4B9C4201D1AC68CAE70C4B69
:1048FA009C42C7D1EC68C5E721002800FFF7FFFBFF
:10490A000028C6D0012676423000F8BD1343A381A1
:10491A00226E044B13402366C3E7EC7204000C7347
:10492A000400CC720400FFDFFFFF032370B5CD1C27
:10493A009D43083506000C2D1CD20C25A9421BD814
:10494A00300003F087F8254A14682100C1B9244CC5
:10495A0023681BB9300002F0A4FC20602900300053
:10496A0002F09FFC431C2DD10C2330003360FEF76C
:10497A008FFE03E0002DE1DA0C233360002070BDC6
:10498A000B685B1B1BD40B2B03D90B60CC1825605F
:10499A0003E08C420FD1636813603000FEF778FEA3
:1049AA00200007220B30231D9043C31A002BE6D0A8
:1049BA005A42E250E3E74B6863600C00EDE70C00F3
:1049CA004968C3E70323C41C9C43A042DFD0211AD1
:1049DA00300002F066FC431CD9D1C5E7C046BCA42E
:1049EA000020C0A40020F0B587B004000D0003F039
:1049FA002BF8020002A9284BC1CBC1C11B680B606E
:104A0A00002C47D0E22005B30021200002F0D7FE97
:104A1A0000232B80FFF7E5FB060008221F4910310F
:104A2A00200002F069FE96B90299200002F0ABFD5F
:104A3A0001A90A230B7000234B70200002F0A3FD8A
:104A4A00200002F0E9FE2880002007B0F0BD002017
:104A5A0002F0A5FE0700407802F079F818B10100CB
:104A6A00200002F090FDB60002ABF158200002F0DF
:104A7A008AFD200002F0D0FE03004FF6FF701840B6
:104A8A00013020183B78022B02D0FB780370CFE765
:104A9A00BB78FBE7E220D8E7C0469C360400510009
:104AAA0000007C7A040028000000607804002400DA
:104ABA0000006C7904001C0000006C7804004300BC
:104ACA0000008C790400150000009C790400400065
:104ADA000000A479040030000000B47904005600F4
:104AEA000000807A040017000000BC790400080066
:104AFA000000847A040016000000C479040046000D
:104B0A000000C07804001B000000D47904000200F1
:104B1A000000DC79040080000000CC7804007700F3
:104B2A000000D878040041000000F479040047002E
:104B3A000000887A0400200000000879040045007B
:104B4A000000047A0400120000000C7A0400F0B598
:104B5A0085B00600264B18606A46254B183313CBDE
:104B6A0013C21B6813600024200002F018FE857827
:104B7A00AE420FD00134E4B2082CF5D100241C480F
:104B8A0001005031603002F07CFB200002F0D7FCBB
:104B9A0005B0F0BD04784378174A1370467B022C9F
:104BAA0015D00222210091430129E8D1180001F011
:104BBA00CEFF0500300002F0CEFC0300A2006946D9
:104BCA0051582A000B483C3002F05BFBDDE7180025
:104BDA0001F0BDFF0700300002F0BDFC2B003A00D7
:104BEA0002990348283002F04CFBCEE7C046ACA439
:104BFA000020044C0400CFA4002025303258282974
:104C0A0025630000000025303258282573292563C2
:104C1A000000844C0400904C0400984C0400A04C02
:104C2A00040053656C6563746564202573257325D8
:104C3A003032580D0A0053656C656374656420252B
:104C4A0073257325730D0A000000496E76616C693D
:104C5A00642064657669636500002573200D0A0087
:104C6A000000496E76616C696420636F6D6D616ED8
:104C7A00643A2025730A000000006E6F5F6465764F
:104C8A006963652000005350492000000000545712
:104C9A00492000000000535749200000C046F0B5E3
:104CAA00DE4657464E464546E0B583B006000F003D
:104CBA00002301AA137001216A4651803B7000202B
:104CCA0001F0FBFB1E2002F016FCFE25FF2440F239
:104CDA00020811E0B570434633703B780133DBB20A
:104CEA003B70082B25D00E36200001F06EFC023CEA
:104CFA00023DEDB2012C1CD0E3B299466B469A1CD8
:104D0A0001A9200001F063FD0028EDD1331D9A4668
:104D1A00731C9B461A005146484601F016F80028B3
:104D2A00D8D05A465146484600F08FFA0028DBD1BF
:104D3A00D0E703B03CBC90469946A246AB46F0BDCC
:104D4A00F0B5DE4657464E464546E0B583B000907C
:104D5A000191002940D038B9009803B03CBC904674
:104D6A009946A246AB46F0BD050044000134200036
:104D7A0002F089FC80462200002102F020FD019AFF
:104D8A0017002B00013B9BB2013392469A44002440
:104D9A0040F20F0B651CADB2A146C1443E78300902
:104DAA0002F05DFC4B4618700234A4B245445846E2
:104DBA00304002F054FC287001375745EAD1009B75
:104DCA005B009BB200935A1C4146019802F094FC86
:104DDA00404602F062FCBFE700230093BCE770B5CF
:104DEA0005000C00431C14D0B1B10823CB56012B8B
:104DFA0015DDC378B3B9837B012B02D07F204042F3
:104E0A0037E0002383730A20285601F060FC06006D
:104E1A0009E07D2040422CE07D20404229E07D20AF
:104E2A00404226E00026FE23237200236360E369E2
:104E3A0063B1A2699A61A3690BB1E269DA610023DD
:104E4A00E361A361E3680BB120009847EB78002087
:104E5A007BB95EB1AA7A53B2002B07DB5B091F212B
:104E6A00114001228A409B0003495A500123AB7327
:104E7A00002070BDC04600E100E0F8B504000D0056
:104E8A000F230B40012B2FD8421C30D010339B002C
:104E9A00C3185E68C3786BBB837B012B02D07F206B
:104EAA00404232E0002383730A20205601F00FFCAF
:104EBA000700E809C00030180221494202F04DF803
:104ECA00E37800200BBB5FB1A27A53B2002B07DB59
:104EDA005B091F21114001228A409B000C495A504C
:104EEA000123A373002010E07C2040420DE07D20C6
:104EFA0040420AE0CD09ED0070190221494202F050
:104F0A002CF8E3780020002BEAD0F8BDC04600E177
:104F1A0000E002281CD10F4A104B1A60104A104BAD
:104F2A001A60104A114B1A60114A114B1A60114A41
:104F3A00124B1A60124A124B1A60124A134B1A6029
:104F4A00134A134B1A60134A144B1A60002000E0EC
:104F5A00E2207047C046EF7504004482002037778C
:104F6A0004004C820020A94C040034820020C5644D
:104F7A0004002C820020D5650400408200201766B8
:104F8A00040030820020FD7304003C820020D967AF
:104F9A00040038820020593E04004882002070B57F
:104FAA00050079B10C1F2368002B00DAE4182800E9
:104FBA0002F050FD1C4A13682BB963601460280084
:104FCA00FEF766FB70BDA34209D9216860188342C7
:104FDA00F3D118685B6841182160EEE713005A683C
:104FEA000AB1A242FAD919685818A0420BD120680E
:104FFA000918581819608242E1D11068526841189C
:10500A0019605A60DBE7A04202D90C232B60D6E76D
:10501A0021686018824203D11068526841182160E1
:10502A0062605C60CBE7BCA4002070B50400117913
:10503A00537833B1012B19D0032B27D00C2B35D041
:10504A0070BDBC254353E423C3585B6BC0699847C2
:10505A0001230340605D01229043184360552100FB
:10506A00BC310222200001F006FAE9E79078D378F1
:10507A001B020343002BE3D1E423E358DB6AE06914
:10508A0098470021200001F042F9D9E79078D378B7
:10509A001B020343002BD3D1E423E3589B6AE06944
:1050AA0098470021200001F032F9C9E7012101F0F7
:1050BA002EF9C5E7704710B5FEB004001B4B1B68FC
:1050CA001A8840F2F3139A4201D940F2F412174BAC
:1050DA00196801A802F010FB0A2101A802F0DAF906
:1050EA0008B100230370124B1B7853B9124B1B787B
:1050FA008BB901AA21001048583002F0C2F87EB0DC
:10510A0010BD00220B4B1A7001AA21000B48443033
:10511A0002F0B7F8F3E70022074B1A7001AA210040
:10512A000648503002F0ADF8E9E7E8950020E4952A
:10513A000020CDA40020CEA400201C3704001E4A63
:10514A001F4B70B50021934203D219700133934269
:10515A00FBD1002503261A4803684168B3B959B33D
:10516A0083680C30BBB100230022845C9C5401325A
:10517A008A42FAD333000B405A1E934189085918C0
:10518A008900401803684168002BE8D082680C3017
:10519A003AB90029E0D059181D7001338B42FBD16E
:1051AA00DAE70029E0D133000B405A1E93418908FF
:1051BA00591889004018E5E770BD949600200080D0
:1051CA000020D00D040070B50400431C01D0037800
:1051DA0003B970BD456A1021FDF747FCE37813BB9C
:1051EA00A37B012BF5D10026A6730A20205601F0D5
:1051FA006EFAA67140F2FD33AB82AE722B890122A0
:10520A0013432B81E378002BE3D1C8B1A27A53B2BE
:10521A00002B15DB5B091F21114001228A409B00EC
:10522A0009495A500CE00023A37140F2FD32AA82C8
:10523A00AB722B89012213432B81E378002BC8D14F
:10524A000123A373C5E700E100E0F0B587B00400CD
:10525A000E00150002A9002302934B608B600B73AA
:10526A000A238B70C2234B7270238B726B469A1D72
:10527A000B2313800D2001AB18801020134B1870DC
:10528A00200001F0A4FA070028B100220F4B1A707F
:10529A00380007B0F0BD052002F02DF901AA02A9D5
:1052AA00200001F0B2FA07000028EED10B2102A873
:1052BA0001F001FC0028E8D008220B2169443000E3
:1052CA0002F01AFA10232B70DFE7CFA40020F0B502
:1052DA00DE464F464646C0B586B00490B423C4584D
:1052EA00A278E3781B021343994653B3002640F28F
:1052FA0000080023059300250FE0A3780593E278C0
:10530A0090460499180000F0DEFF060008E02378B2
:10531A00ED18ADB2E418A94513D96778042FECD07B
:10532A00002EF4D0F368002BF1D0B268B088029452
:10533A000197414600911B689B46059B0499D847F3
:10534A00E5E706B01CBC90469946A346F0BD10B5E9
:10535A001048104B0360104B4360104B8360104B96
:10536A00C360104B0361104B8361104B0362104BF7
:10537A004362104B8362104BC362104B0363104BA2
:10538A004363104B8363104BC36302F05EF910BD95
:10539A00C0461CA40020F1490400212E04008D33CC
:1053AA0004006D7A040039790400717A04001975D1
:1053BA0004003175040009650400997704004176F8
:1053CA000400095E0400757A0400797A040070B555
:1053DA00194B1B681B782BB3184B1C68184964318E
